{
  "abi": [
    {
      "anonymous": false,
      "inputs": [
        {
          "indexed": true,
          "internalType": "address",
          "name": "owner",
          "type": "address"
        },
        {
          "indexed": true,
          "internalType": "address",
          "name": "approved",
          "type": "address"
        },
        {
          "indexed": true,
          "internalType": "uint256",
          "name": "tokenId",
          "type": "uint256"
        }
      ],
      "name": "Approval",
      "type": "event"
    },
    {
      "anonymous": false,
      "inputs": [
        {
          "indexed": true,
          "internalType": "address",
          "name": "owner",
          "type": "address"
        },
        {
          "indexed": true,
          "internalType": "address",
          "name": "operator",
          "type": "address"
        },
        {
          "indexed": false,
          "internalType": "bool",
          "name": "approved",
          "type": "bool"
        }
      ],
      "name": "ApprovalForAll",
      "type": "event"
    },
    {
      "anonymous": false,
      "inputs": [
        {
          "indexed": true,
          "internalType": "address",
          "name": "from",
          "type": "address"
        },
        {
          "indexed": true,
          "internalType": "address",
          "name": "to",
          "type": "address"
        },
        {
          "indexed": true,
          "internalType": "uint256",
          "name": "tokenId",
          "type": "uint256"
        }
      ],
      "name": "Transfer",
      "type": "event"
    },
    {
      "inputs": [
        {
          "internalType": "address",
          "name": "to",
          "type": "address"
        },
        {
          "internalType": "uint256",
          "name": "tokenId",
          "type": "uint256"
        }
      ],
      "name": "approve",
      "outputs": [],
      "stateMutability": "nonpayable",
      "type": "function"
    },
    {
      "inputs": [
        {
          "internalType": "address",
          "name": "owner",
          "type": "address"
        }
      ],
      "name": "balanceOf",
      "outputs": [
        {
          "internalType": "uint256",
          "name": "",
          "type": "uint256"
        }
      ],
      "stateMutability": "view",
      "type": "function"
    },
    {
      "inputs": [
        {
          "internalType": "uint256",
          "name": "tokenId",
          "type": "uint256"
        }
      ],
      "name": "getApproved",
      "outputs": [
        {
          "internalType": "address",
          "name": "",
          "type": "address"
        }
      ],
      "stateMutability": "view",
      "type": "function"
    },
    {
      "inputs": [
        {
          "internalType": "address",
          "name": "owner",
          "type": "address"
        },
        {
          "internalType": "address",
          "name": "operator",
          "type": "address"
        }
      ],
      "name": "isApprovedForAll",
      "outputs": [
        {
          "internalType": "bool",
          "name": "",
          "type": "bool"
        }
      ],
      "stateMutability": "view",
      "type": "function"
    },
    {
      "inputs": [],
      "name": "name",
      "outputs": [
        {
          "internalType": "string",
          "name": "",
          "type": "string"
        }
      ],
      "stateMutability": "view",
      "type": "function"
    },
    {
      "inputs": [
        {
          "internalType": "uint256",
          "name": "tokenId",
          "type": "uint256"
        }
      ],
      "name": "ownerOf",
      "outputs": [
        {
          "internalType": "address",
          "name": "",
          "type": "address"
        }
      ],
      "stateMutability": "view",
      "type": "function"
    },
    {
      "inputs": [
        {
          "internalType": "address",
          "name": "to",
          "type": "address"
        },
        {
          "internalType": "string",
          "name": "uri",
          "type": "string"
        }
      ],
      "name": "safeMint",
      "outputs": [],
      "stateMutability": "nonpayable",
      "type": "function"
    },
    {
      "inputs": [
        {
          "internalType": "address",
          "name": "from",
          "type": "address"
        },
        {
          "internalType": "address",
          "name": "to",
          "type": "address"
        },
        {
          "internalType": "uint256",
          "name": "tokenId",
          "type": "uint256"
        }
      ],
      "name": "safeTransferFrom",
      "outputs": [],
      "stateMutability": "nonpayable",
      "type": "function"
    },
    {
      "inputs": [
        {
          "internalType": "address",
          "name": "from",
          "type": "address"
        },
        {
          "internalType": "address",
          "name": "to",
          "type": "address"
        },
        {
          "internalType": "uint256",
          "name": "tokenId",
          "type": "uint256"
        },
        {
          "internalType": "bytes",
          "name": "data",
          "type": "bytes"
        }
      ],
      "name": "safeTransferFrom",
      "outputs": [],
      "stateMutability": "nonpayable",
      "type": "function"
    },
    {
      "inputs": [
        {
          "internalType": "address",
          "name": "operator",
          "type": "address"
        },
        {
          "internalType": "bool",
          "name": "approved",
          "type": "bool"
        }
      ],
      "name": "setApprovalForAll",
      "outputs": [],
      "stateMutability": "nonpayable",
      "type": "function"
    },
    {
      "inputs": [],
      "name": "symbol",
      "outputs": [
        {
          "internalType": "string",
          "name": "",
          "type": "string"
        }
      ],
      "stateMutability": "view",
      "type": "function"
    },
    {
      "inputs": [
        {
          "internalType": "uint256",
          "name": "tokenId",
          "type": "uint256"
        }
      ],
      "name": "tokenURI",
      "outputs": [
        {
          "internalType": "string",
          "name": "",
          "type": "string"
        }
      ],
      "stateMutability": "view",
      "type": "function"
    },
    {
      "inputs": [
        {
          "internalType": "address",
          "name": "from",
          "type": "address"
        },
        {
          "internalType": "address",
          "name": "to",
          "type": "address"
        },
        {
          "internalType": "uint256",
          "name": "tokenId",
          "type": "uint256"
        }
      ],
      "name": "transferFrom",
      "outputs": [],
      "stateMutability": "nonpayable",
      "type": "function"
    }
  ],
  "bytecode": {
    "object": "0x608060405234801561001057600080fd5b506115ea806100206000396000f3fe608060405234801561001057600080fd5b50600436106100cf5760003560e01c806370a082311161008c578063b88d4fde11610066578063b88d4fde146101a7578063c87b56dd146101ba578063d204c45e146101cd578063e985e9c5146101e057600080fd5b806370a082311461016b57806395d89b411461018c578063a22cb4651461019457600080fd5b806306fdde03146100d4578063081812fc146100f2578063095ea7b31461011d57806323b872dd1461013257806342842e0e146101455780636352211e14610158575b600080fd5b6100dc610203565b6040516100e99190611050565b60405180910390f35b610105610100366004611063565b610297565b6040516001600160a01b0390911681526020016100e9565b61013061012b366004611098565b6102be565b005b6101306101403660046110c2565b6103d8565b6101306101533660046110c2565b610409565b610105610166366004611063565b610424565b61017e6101793660046110fe565b61048a565b6040519081526020016100e9565b6100dc610510565b6101306101a2366004611119565b610522565b6101306101b53660046111e1565b610531565b6100dc6101c8366004611063565b610569565b6101306101db36600461125d565b610679565b6101f36101ee3660046112bf565b6106f4565b60405190151581526020016100e9565b6060600080018054610214906112f2565b80601f0160208091040260200160405190810160405280929190818152602001828054610240906112f2565b801561028d5780601f106102625761010080835404028352916020019161028d565b820191906000526020600020905b81548152906001019060200180831161027057829003601f168201915b5050505050905090565b60006102a282610722565b506000908152600460205260409020546001600160a01b031690565b60006102c982610424565b9050806001600160a01b0316836001600160a01b03160361033b5760405162461bcd60e51b815260206004820152602160248201527f4552433732313a20617070726f76616c20746f2063757272656e74206f776e656044820152603960f91b60648201526084015b60405180910390fd5b336001600160a01b0382161480610357575061035781336106f4565b6103c95760405162461bcd60e51b815260206004820152603d60248201527f4552433732313a20617070726f76652063616c6c6572206973206e6f7420746f60448201527f6b656e206f776e6572206f7220617070726f76656420666f7220616c6c0000006064820152608401610332565b6103d38383610784565b505050565b6103e233826107f2565b6103fe5760405162461bcd60e51b81526004016103329061132c565b6103d3838383610850565b6103d383838360405180602001604052806000815250610531565b6000818152600260205260408120546001600160a01b0316806104845760405162461bcd60e51b8152602060048201526018602482015277115490cdcc8c4e881a5b9d985b1a59081d1bdad95b88125160421b6044820152606401610332565b92915050565b60006001600160a01b0382166104f45760405162461bcd60e51b815260206004820152602960248201527f4552433732313a2061646472657373207a65726f206973206e6f7420612076616044820152683634b21037bbb732b960b91b6064820152608401610332565b506001600160a01b031660009081526003602052604090205490565b606060006001018054610214906112f2565b61052d3383836109b4565b5050565b61053b33836107f2565b6105575760405162461bcd60e51b81526004016103329061132c565b61056384848484610a82565b50505050565b606061057482610722565b6000828152600660205260408120805461058d906112f2565b80601f01602080910402602001604051908101604052809291908181526020018280546105b9906112f2565b80156106065780601f106105db57610100808354040283529160200191610606565b820191906000526020600020905b8154815290600101906020018083116105e957829003601f168201915b50505050509050600061062460408051602081019091526000815290565b90508051600003610636575092915050565b815115610668578082604051602001610650929190611379565b60405160208183030381529060405292505050919050565b61067184610ab5565b949350505050565b600061068460075490565b6008549091508111156106d25760405162461bcd60e51b8152602060048201526016602482015275536f7272792c206d696e7420636f6d706c657465642160501b6044820152606401610332565b6106e0600780546001019055565b6106ea8382610b29565b6103d38183610b43565b6001600160a01b03918216600090815260056020908152604080832093909416825291909152205460ff1690565b6000818152600260205260409020546001600160a01b03166107815760405162461bcd60e51b8152602060048201526018602482015277115490cdcc8c4e881a5b9d985b1a59081d1bdad95b88125160421b6044820152606401610332565b50565b600081815260046020526040902080546001600160a01b0319166001600160a01b03841690811790915581906107b982610424565b6001600160a01b03167f8c5be1e5ebec7d5bd14f71427d1e84f3dd0314c0f7b2291e5b200ac8c7c3b92560405160405180910390a45050565b6000806107fe83610424565b9050806001600160a01b0316846001600160a01b03161480610825575061082581856106f4565b806106715750836001600160a01b031661083e84610297565b6001600160a01b031614949350505050565b826001600160a01b031661086382610424565b6001600160a01b0316146108895760405162461bcd60e51b8152600401610332906113a8565b6001600160a01b0382166108eb5760405162461bcd60e51b8152602060048201526024808201527f4552433732313a207472616e7366657220746f20746865207a65726f206164646044820152637265737360e01b6064820152608401610332565b826001600160a01b03166108fe82610424565b6001600160a01b0316146109245760405162461bcd60e51b8152600401610332906113a8565b600081815260046020908152604080832080546001600160a01b03199081169091556001600160a01b0387811680865260038552838620805460001901905590871680865283862080546001019055868652600290945282852080549092168417909155905184937fddf252ad1be2c89b69c2b068fc378daa952ba7f163c4a11628f55a4df523b3ef91a4505050565b816001600160a01b0316836001600160a01b031603610a155760405162461bcd60e51b815260206004820152601960248201527f4552433732313a20617070726f766520746f2063616c6c6572000000000000006044820152606401610332565b6001600160a01b03838116600081815260056020908152604080832094871680845294825291829020805460ff191686151590811790915591519182527f17307eab39ab6107e8899845ad3d59bd9653f200f220920489ca2b5937696c31910160405180910390a3505050565b610a8d848484610850565b610a9984848484610bd6565b6105635760405162461bcd60e51b8152600401610332906113ed565b6060610ac082610722565b6000610ad760408051602081019091526000815290565b90506000815111610af75760405180602001604052806000815250610b22565b80610b0184610cd7565b604051602001610b12929190611379565b6040516020818303038152906040525b9392505050565b61052d828260405180602001604052806000815250610d6a565b6000828152600260205260409020546001600160a01b0316610bbe5760405162461bcd60e51b815260206004820152602e60248201527f45524337323155524953746f726167653a2055524920736574206f66206e6f6e60448201526d32bc34b9ba32b73a103a37b5b2b760911b6064820152608401610332565b60008281526006602052604090206103d3828261148d565b60006001600160a01b0384163b15610ccc57604051630a85bd0160e11b81526001600160a01b0385169063150b7a0290610c1a90339089908890889060040161154d565b6020604051808303816000875af1925050508015610c55575060408051601f3d908101601f19168201909252610c529181019061158a565b60015b610cb2573d808015610c83576040519150601f19603f3d011682016040523d82523d6000602084013e610c88565b606091505b508051600003610caa5760405162461bcd60e51b8152600401610332906113ed565b805181602001fd5b6001600160e01b031916630a85bd0160e11b149050610671565b506001949350505050565b60606000610ce483610d9d565b600101905060008167ffffffffffffffff811115610d0457610d04611155565b6040519080825280601f01601f191660200182016040528015610d2e576020820181803683370190505b5090508181016020015b600019016f181899199a1a9b1b9c1cb0b131b232b360811b600a86061a8153600a8504945084610d3857509392505050565b610d748383610e75565b610d816000848484610bd6565b6103d35760405162461bcd60e51b8152600401610332906113ed565b60008072184f03e93ff9f4daa797ed6e38ed64bf6a1f0160401b8310610ddc5772184f03e93ff9f4daa797ed6e38ed64bf6a1f0160401b830492506040015b6d04ee2d6d415b85acef81000000008310610e08576d04ee2d6d415b85acef8100000000830492506020015b662386f26fc100008310610e2657662386f26fc10000830492506010015b6305f5e1008310610e3e576305f5e100830492506008015b6127108310610e5257612710830492506004015b60648310610e64576064830492506002015b600a83106104845760010192915050565b6001600160a01b038216610ecb5760405162461bcd60e51b815260206004820181905260248201527f4552433732313a206d696e7420746f20746865207a65726f20616464726573736044820152606401610332565b6000818152600260205260409020546001600160a01b031615610f305760405162461bcd60e51b815260206004820152601c60248201527f4552433732313a20746f6b656e20616c7265616479206d696e746564000000006044820152606401610332565b6000818152600260205260409020546001600160a01b031615610f955760405162461bcd60e51b815260206004820152601c60248201527f4552433732313a20746f6b656e20616c7265616479206d696e746564000000006044820152606401610332565b6001600160a01b038216600081815260036020908152604080832080546001019055848352600290915280822080546001600160a01b0319168417905551839291907fddf252ad1be2c89b69c2b068fc378daa952ba7f163c4a11628f55a4df523b3ef908290a45050565b60005b8381101561101b578181015183820152602001611003565b50506000910152565b6000815180845261103c816020860160208601611000565b601f01601f19169290920160200192915050565b602081526000610b226020830184611024565b60006020828403121561107557600080fd5b5035919050565b80356001600160a01b038116811461109357600080fd5b919050565b600080604083850312156110ab57600080fd5b6110b48361107c565b946020939093013593505050565b6000806000606084860312156110d757600080fd5b6110e08461107c565b92506110ee6020850161107c565b9150604084013590509250925092565b60006020828403121561111057600080fd5b610b228261107c565b6000806040838503121561112c57600080fd5b6111358361107c565b91506020830135801515811461114a57600080fd5b809150509250929050565b634e487b7160e01b600052604160045260246000fd5b600067ffffffffffffffff8084111561118657611186611155565b604051601f8501601f19908116603f011681019082821181831017156111ae576111ae611155565b816040528093508581528686860111156111c757600080fd5b858560208301376000602087830101525050509392505050565b600080600080608085870312156111f757600080fd5b6112008561107c565b935061120e6020860161107c565b925060408501359150606085013567ffffffffffffffff81111561123157600080fd5b8501601f8101871361124257600080fd5b6112518782356020840161116b565b91505092959194509250565b6000806040838503121561127057600080fd5b6112798361107c565b9150602083013567ffffffffffffffff81111561129557600080fd5b8301601f810185136112a657600080fd5b6112b58582356020840161116b565b9150509250929050565b600080604083850312156112d257600080fd5b6112db8361107c565b91506112e96020840161107c565b90509250929050565b600181811c9082168061130657607f821691505b60208210810361132657634e487b7160e01b600052602260045260246000fd5b50919050565b6020808252602d908201527f4552433732313a2063616c6c6572206973206e6f7420746f6b656e206f776e6560408201526c1c881bdc88185c1c1c9bdd9959609a1b606082015260800190565b6000835161138b818460208801611000565b83519083019061139f818360208801611000565b01949350505050565b60208082526025908201527f4552433732313a207472616e736665722066726f6d20696e636f72726563742060408201526437bbb732b960d91b606082015260800190565b60208082526032908201527f4552433732313a207472616e7366657220746f206e6f6e20455243373231526560408201527131b2b4bb32b91034b6b83632b6b2b73a32b960711b606082015260800190565b601f8211156103d357600081815260208120601f850160051c810160208610156114665750805b601f850160051c820191505b8181101561148557828155600101611472565b505050505050565b815167ffffffffffffffff8111156114a7576114a7611155565b6114bb816114b584546112f2565b8461143f565b602080601f8311600181146114f057600084156114d85750858301515b600019600386901b1c1916600185901b178555611485565b600085815260208120601f198616915b8281101561151f57888601518255948401946001909101908401611500565b508582101561153d5787850151600019600388901b60f8161c191681555b5050505050600190811b01905550565b6001600160a01b038581168252841660208201526040810183905260806060820181905260009061158090830184611024565b9695505050505050565b60006020828403121561159c57600080fd5b81516001600160e01b031981168114610b2257600080fdfea264697066735822122088a9cb9ed2058feace0cc437103aa5fd79590fb2253d81c66aecabde984685c664736f6c63430008150033",
    "linkReferences": {}
  },
  "methodIdentifiers": {
    "approve(address,uint256)": "095ea7b3",
    "balanceOf(address)": "70a08231",
    "getApproved(uint256)": "081812fc",
    "isApprovedForAll(address,address)": "e985e9c5",
    "name()": "06fdde03",
    "ownerOf(uint256)": "6352211e",
    "safeMint(address,string)": "d204c45e",
    "safeTransferFrom(address,address,uint256)": "42842e0e",
    "safeTransferFrom(address,address,uint256,bytes)": "b88d4fde",
    "setApprovalForAll(address,bool)": "a22cb465",
    "symbol()": "95d89b41",
    "tokenURI(uint256)": "c87b56dd",
    "transferFrom(address,address,uint256)": "23b872dd"
  },
  "id": 1
}