{
  "abi": [
    {
      "anonymous": false,
      "inputs": [
        {
          "indexed": true,
          "internalType": "address",
          "name": "owner",
          "type": "address"
        },
        {
          "indexed": true,
          "internalType": "address",
          "name": "approved",
          "type": "address"
        },
        {
          "indexed": true,
          "internalType": "uint256",
          "name": "tokenId",
          "type": "uint256"
        }
      ],
      "name": "Approval",
      "type": "event"
    },
    {
      "anonymous": false,
      "inputs": [
        {
          "indexed": true,
          "internalType": "address",
          "name": "owner",
          "type": "address"
        },
        {
          "indexed": true,
          "internalType": "address",
          "name": "operator",
          "type": "address"
        },
        {
          "indexed": false,
          "internalType": "bool",
          "name": "approved",
          "type": "bool"
        }
      ],
      "name": "ApprovalForAll",
      "type": "event"
    },
    {
      "anonymous": false,
      "inputs": [
        {
          "indexed": true,
          "internalType": "address",
          "name": "from",
          "type": "address"
        },
        {
          "indexed": true,
          "internalType": "address",
          "name": "to",
          "type": "address"
        },
        {
          "indexed": true,
          "internalType": "uint256",
          "name": "tokenId",
          "type": "uint256"
        }
      ],
      "name": "Transfer",
      "type": "event"
    },
    {
      "inputs": [
        {
          "internalType": "address",
          "name": "to",
          "type": "address"
        },
        {
          "internalType": "uint256",
          "name": "tokenId",
          "type": "uint256"
        }
      ],
      "name": "approve",
      "outputs": [],
      "stateMutability": "nonpayable",
      "type": "function"
    },
    {
      "inputs": [
        {
          "internalType": "address",
          "name": "owner",
          "type": "address"
        }
      ],
      "name": "balanceOf",
      "outputs": [
        {
          "internalType": "uint256",
          "name": "",
          "type": "uint256"
        }
      ],
      "stateMutability": "view",
      "type": "function"
    },
    {
      "inputs": [
        {
          "internalType": "uint256",
          "name": "tokenId",
          "type": "uint256"
        }
      ],
      "name": "getApproved",
      "outputs": [
        {
          "internalType": "address",
          "name": "",
          "type": "address"
        }
      ],
      "stateMutability": "view",
      "type": "function"
    },
    {
      "inputs": [
        {
          "internalType": "address",
          "name": "owner",
          "type": "address"
        },
        {
          "internalType": "address",
          "name": "operator",
          "type": "address"
        }
      ],
      "name": "isApprovedForAll",
      "outputs": [
        {
          "internalType": "bool",
          "name": "",
          "type": "bool"
        }
      ],
      "stateMutability": "view",
      "type": "function"
    },
    {
      "inputs": [],
      "name": "name",
      "outputs": [
        {
          "internalType": "string",
          "name": "",
          "type": "string"
        }
      ],
      "stateMutability": "view",
      "type": "function"
    },
    {
      "inputs": [
        {
          "internalType": "uint256",
          "name": "tokenId",
          "type": "uint256"
        }
      ],
      "name": "ownerOf",
      "outputs": [
        {
          "internalType": "address",
          "name": "",
          "type": "address"
        }
      ],
      "stateMutability": "view",
      "type": "function"
    },
    {
      "inputs": [
        {
          "internalType": "address",
          "name": "from",
          "type": "address"
        },
        {
          "internalType": "address",
          "name": "to",
          "type": "address"
        },
        {
          "internalType": "uint256",
          "name": "tokenId",
          "type": "uint256"
        }
      ],
      "name": "safeTransferFrom",
      "outputs": [],
      "stateMutability": "nonpayable",
      "type": "function"
    },
    {
      "inputs": [
        {
          "internalType": "address",
          "name": "from",
          "type": "address"
        },
        {
          "internalType": "address",
          "name": "to",
          "type": "address"
        },
        {
          "internalType": "uint256",
          "name": "tokenId",
          "type": "uint256"
        },
        {
          "internalType": "bytes",
          "name": "data",
          "type": "bytes"
        }
      ],
      "name": "safeTransferFrom",
      "outputs": [],
      "stateMutability": "nonpayable",
      "type": "function"
    },
    {
      "inputs": [
        {
          "internalType": "address",
          "name": "operator",
          "type": "address"
        },
        {
          "internalType": "bool",
          "name": "approved",
          "type": "bool"
        }
      ],
      "name": "setApprovalForAll",
      "outputs": [],
      "stateMutability": "nonpayable",
      "type": "function"
    },
    {
      "inputs": [],
      "name": "symbol",
      "outputs": [
        {
          "internalType": "string",
          "name": "",
          "type": "string"
        }
      ],
      "stateMutability": "view",
      "type": "function"
    },
    {
      "inputs": [
        {
          "internalType": "uint256",
          "name": "tokenId",
          "type": "uint256"
        }
      ],
      "name": "tokenURI",
      "outputs": [
        {
          "internalType": "string",
          "name": "",
          "type": "string"
        }
      ],
      "stateMutability": "view",
      "type": "function"
    },
    {
      "inputs": [
        {
          "internalType": "address",
          "name": "from",
          "type": "address"
        },
        {
          "internalType": "address",
          "name": "to",
          "type": "address"
        },
        {
          "internalType": "uint256",
          "name": "tokenId",
          "type": "uint256"
        }
      ],
      "name": "transferFrom",
      "outputs": [],
      "stateMutability": "nonpayable",
      "type": "function"
    }
  ],
  "bytecode": {
    "object": "0x608060405234801561001057600080fd5b50611041806100206000396000f3fe608060405234801561001057600080fd5b50600436106100b45760003560e01c806370a082311161007157806370a082311461015057806395d89b4114610171578063a22cb46514610179578063b88d4fde1461018c578063c87b56dd1461019f578063e985e9c5146101b257600080fd5b806306fdde03146100b9578063081812fc146100d7578063095ea7b31461010257806323b872dd1461011757806342842e0e1461012a5780636352211e1461013d575b600080fd5b6100c16101d5565b6040516100ce9190610c2d565b60405180910390f35b6100ea6100e5366004610c40565b610269565b6040516001600160a01b0390911681526020016100ce565b610115610110366004610c75565b610290565b005b610115610125366004610c9f565b6103aa565b610115610138366004610c9f565b6103db565b6100ea61014b366004610c40565b6103f6565b61016361015e366004610cdb565b61045c565b6040519081526020016100ce565b6100c16104e2565b610115610187366004610cf6565b6104f4565b61011561019a366004610d48565b610503565b6100c16101ad366004610c40565b61053b565b6101c56101c0366004610e24565b6105af565b60405190151581526020016100ce565b60606000800180546101e690610e57565b80601f016020809104026020016040519081016040528092919081815260200182805461021290610e57565b801561025f5780601f106102345761010080835404028352916020019161025f565b820191906000526020600020905b81548152906001019060200180831161024257829003601f168201915b5050505050905090565b6000610274826105dd565b506000908152600460205260409020546001600160a01b031690565b600061029b826103f6565b9050806001600160a01b0316836001600160a01b03160361030d5760405162461bcd60e51b815260206004820152602160248201527f4552433732313a20617070726f76616c20746f2063757272656e74206f776e656044820152603960f91b60648201526084015b60405180910390fd5b336001600160a01b0382161480610329575061032981336105af565b61039b5760405162461bcd60e51b815260206004820152603d60248201527f4552433732313a20617070726f76652063616c6c6572206973206e6f7420746f60448201527f6b656e206f776e6572206f7220617070726f76656420666f7220616c6c0000006064820152608401610304565b6103a5838361063f565b505050565b6103b433826106ad565b6103d05760405162461bcd60e51b815260040161030490610e91565b6103a583838361070c565b6103a583838360405180602001604052806000815250610503565b6000818152600260205260408120546001600160a01b0316806104565760405162461bcd60e51b8152602060048201526018602482015277115490cdcc8c4e881a5b9d985b1a59081d1bdad95b88125160421b6044820152606401610304565b92915050565b60006001600160a01b0382166104c65760405162461bcd60e51b815260206004820152602960248201527f4552433732313a2061646472657373207a65726f206973206e6f7420612076616044820152683634b21037bbb732b960b91b6064820152608401610304565b506001600160a01b031660009081526003602052604090205490565b6060600060010180546101e690610e57565b6104ff338383610870565b5050565b61050d33836106ad565b6105295760405162461bcd60e51b815260040161030490610e91565b6105358484848461093e565b50505050565b6060610546826105dd565b600061055d60408051602081019091526000815290565b9050600081511161057d57604051806020016040528060008152506105a8565b8061058784610971565b604051602001610598929190610ede565b6040516020818303038152906040525b9392505050565b6001600160a01b03918216600090815260056020908152604080832093909416825291909152205460ff1690565b6000818152600260205260409020546001600160a01b031661063c5760405162461bcd60e51b8152602060048201526018602482015277115490cdcc8c4e881a5b9d985b1a59081d1bdad95b88125160421b6044820152606401610304565b50565b600081815260046020526040902080546001600160a01b0319166001600160a01b0384169081179091558190610674826103f6565b6001600160a01b03167f8c5be1e5ebec7d5bd14f71427d1e84f3dd0314c0f7b2291e5b200ac8c7c3b92560405160405180910390a45050565b6000806106b9836103f6565b9050806001600160a01b0316846001600160a01b031614806106e057506106e081856105af565b806107045750836001600160a01b03166106f984610269565b6001600160a01b0316145b949350505050565b826001600160a01b031661071f826103f6565b6001600160a01b0316146107455760405162461bcd60e51b815260040161030490610f0d565b6001600160a01b0382166107a75760405162461bcd60e51b8152602060048201526024808201527f4552433732313a207472616e7366657220746f20746865207a65726f206164646044820152637265737360e01b6064820152608401610304565b826001600160a01b03166107ba826103f6565b6001600160a01b0316146107e05760405162461bcd60e51b815260040161030490610f0d565b600081815260046020908152604080832080546001600160a01b03199081169091556001600160a01b0387811680865260038552838620805460001901905590871680865283862080546001019055868652600290945282852080549092168417909155905184937fddf252ad1be2c89b69c2b068fc378daa952ba7f163c4a11628f55a4df523b3ef91a4505050565b816001600160a01b0316836001600160a01b0316036108d15760405162461bcd60e51b815260206004820152601960248201527f4552433732313a20617070726f766520746f2063616c6c6572000000000000006044820152606401610304565b6001600160a01b03838116600081815260056020908152604080832094871680845294825291829020805460ff191686151590811790915591519182527f17307eab39ab6107e8899845ad3d59bd9653f200f220920489ca2b5937696c31910160405180910390a3505050565b61094984848461070c565b61095584848484610a04565b6105355760405162461bcd60e51b815260040161030490610f52565b6060600061097e83610b05565b600101905060008167ffffffffffffffff81111561099e5761099e610d32565b6040519080825280601f01601f1916602001820160405280156109c8576020820181803683370190505b5090508181016020015b600019016f181899199a1a9b1b9c1cb0b131b232b360811b600a86061a8153600a85049450846109d257509392505050565b60006001600160a01b0384163b15610afa57604051630a85bd0160e11b81526001600160a01b0385169063150b7a0290610a48903390899088908890600401610fa4565b6020604051808303816000875af1925050508015610a83575060408051601f3d908101601f19168201909252610a8091810190610fe1565b60015b610ae0573d808015610ab1576040519150601f19603f3d011682016040523d82523d6000602084013e610ab6565b606091505b508051600003610ad85760405162461bcd60e51b815260040161030490610f52565b805181602001fd5b6001600160e01b031916630a85bd0160e11b149050610704565b506001949350505050565b60008072184f03e93ff9f4daa797ed6e38ed64bf6a1f0160401b8310610b445772184f03e93ff9f4daa797ed6e38ed64bf6a1f0160401b830492506040015b6d04ee2d6d415b85acef81000000008310610b70576d04ee2d6d415b85acef8100000000830492506020015b662386f26fc100008310610b8e57662386f26fc10000830492506010015b6305f5e1008310610ba6576305f5e100830492506008015b6127108310610bba57612710830492506004015b60648310610bcc576064830492506002015b600a83106104565760010192915050565b60005b83811015610bf8578181015183820152602001610be0565b50506000910152565b60008151808452610c19816020860160208601610bdd565b601f01601f19169290920160200192915050565b6020815260006105a86020830184610c01565b600060208284031215610c5257600080fd5b5035919050565b80356001600160a01b0381168114610c7057600080fd5b919050565b60008060408385031215610c8857600080fd5b610c9183610c59565b946020939093013593505050565b600080600060608486031215610cb457600080fd5b610cbd84610c59565b9250610ccb60208501610c59565b9150604084013590509250925092565b600060208284031215610ced57600080fd5b6105a882610c59565b60008060408385031215610d0957600080fd5b610d1283610c59565b915060208301358015158114610d2757600080fd5b809150509250929050565b634e487b7160e01b600052604160045260246000fd5b60008060008060808587031215610d5e57600080fd5b610d6785610c59565b9350610d7560208601610c59565b925060408501359150606085013567ffffffffffffffff80821115610d9957600080fd5b818701915087601f830112610dad57600080fd5b813581811115610dbf57610dbf610d32565b604051601f8201601f19908116603f01168101908382118183101715610de757610de7610d32565b816040528281528a6020848701011115610e0057600080fd5b82602086016020830137600060208483010152809550505050505092959194509250565b60008060408385031215610e3757600080fd5b610e4083610c59565b9150610e4e60208401610c59565b90509250929050565b600181811c90821680610e6b57607f821691505b602082108103610e8b57634e487b7160e01b600052602260045260246000fd5b50919050565b6020808252602d908201527f4552433732313a2063616c6c6572206973206e6f7420746f6b656e206f776e6560408201526c1c881bdc88185c1c1c9bdd9959609a1b606082015260800190565b60008351610ef0818460208801610bdd565b835190830190610f04818360208801610bdd565b01949350505050565b60208082526025908201527f4552433732313a207472616e736665722066726f6d20696e636f72726563742060408201526437bbb732b960d91b606082015260800190565b60208082526032908201527f4552433732313a207472616e7366657220746f206e6f6e20455243373231526560408201527131b2b4bb32b91034b6b83632b6b2b73a32b960711b606082015260800190565b6001600160a01b0385811682528416602082015260408101839052608060608201819052600090610fd790830184610c01565b9695505050505050565b600060208284031215610ff357600080fd5b81516001600160e01b0319811681146105a857600080fdfea26469706673582212207b703e293b351f15c3c5fd627a1886940ae3afd420127a5fdca0e1cf25a87e3964736f6c63430008150033",
    "linkReferences": {}
  },
  "methodIdentifiers": {
    "approve(address,uint256)": "095ea7b3",
    "balanceOf(address)": "70a08231",
    "getApproved(uint256)": "081812fc",
    "isApprovedForAll(address,address)": "e985e9c5",
    "name()": "06fdde03",
    "ownerOf(uint256)": "6352211e",
    "safeTransferFrom(address,address,uint256)": "42842e0e",
    "safeTransferFrom(address,address,uint256,bytes)": "b88d4fde",
    "setApprovalForAll(address,bool)": "a22cb465",
    "symbol()": "95d89b41",
    "tokenURI(uint256)": "c87b56dd",
    "transferFrom(address,address,uint256)": "23b872dd"
  },
  "id": 4
}